{
  "contractName": "FundFactory",
  "abi": [
    {
      "inputs": [
        {
          "internalType": "uint256",
          "name": "",
          "type": "uint256"
        }
      ],
      "name": "activeFunds",
      "outputs": [
        {
          "internalType": "address",
          "name": "",
          "type": "address"
        }
      ],
      "stateMutability": "view",
      "type": "function"
    },
    {
      "inputs": [
        {
          "internalType": "uint256",
          "name": "goal",
          "type": "uint256"
        },
        {
          "internalType": "string",
          "name": "cname",
          "type": "string"
        },
        {
          "internalType": "string",
          "name": "description",
          "type": "string"
        }
      ],
      "name": "createFund",
      "outputs": [],
      "stateMutability": "nonpayable",
      "type": "function"
    },
    {
      "inputs": [],
      "name": "getActiveFunds",
      "outputs": [
        {
          "internalType": "address[]",
          "name": "",
          "type": "address[]"
        }
      ],
      "stateMutability": "view",
      "type": "function"
    }
  ],
  "bytecode": "0x608060405234801561001057600080fd5b506112b9806100206000396000f3fe608060405234801561001057600080fd5b50600436106100415760003560e01c80630fce55d8146100465780632ba19dcc146100a5578063a012082e14610201575b600080fd5b61004e61026f565b6040518080602001828103825283818151815260200191508051906020019060200280838360005b83811015610091578082015181840152602081019050610076565b505050509050019250505060405180910390f35b6101ff600480360360608110156100bb57600080fd5b8101908080359060200190929190803590602001906401000000008111156100e257600080fd5b8201836020820111156100f457600080fd5b8035906020019184600183028401116401000000008311171561011657600080fd5b91908080601f016020809104026020016040519081016040528093929190818152602001838380828437600081840152601f19601f8201169050808301925050505050505091929192908035906020019064010000000081111561017957600080fd5b82018360208201111561018b57600080fd5b803590602001918460018302840111640100000000831117156101ad57600080fd5b91908080601f016020809104026020016040519081016040528093929190818152602001838380828437600081840152601f19601f8201169050808301925050505050505091929192905050506102fd565b005b61022d6004803603602081101561021757600080fd5b81019080803590602001909291905050506104ac565b604051808273ffffffffffffffffffffffffffffffffffffffff1673ffffffffffffffffffffffffffffffffffffffff16815260200191505060405180910390f35b606060008054806020026020016040519081016040528092919081815260200182805480156102f357602002820191906000526020600020905b8160009054906101000a900473ffffffffffffffffffffffffffffffffffffffff1673ffffffffffffffffffffffffffffffffffffffff16815260200190600101908083116102a9575b5050505050905090565b60008333848460405161030f906104e8565b808581526020018473ffffffffffffffffffffffffffffffffffffffff1673ffffffffffffffffffffffffffffffffffffffff1681526020018060200180602001838103835285818151815260200191508051906020019080838360005b8381101561038857808201518184015260208101905061036d565b50505050905090810190601f1680156103b55780820380516001836020036101000a031916815260200191505b50838103825284818151815260200191508051906020019080838360005b838110156103ee5780820151818401526020810190506103d3565b50505050905090810190601f16801561041b5780820380516001836020036101000a031916815260200191505b509650505050505050604051809103906000f080158015610440573d6000803e3d6000fd5b5090506000819080600181540180825580915050600190039060005260206000200160009091909190916101000a81548173ffffffffffffffffffffffffffffffffffffffff021916908373ffffffffffffffffffffffffffffffffffffffff16021790555050505050565b600081815481106104b957fe5b906000526020600020016000915054906101000a900473ffffffffffffffffffffffffffffffffffffffff1681565b610d8e806104f68339019056fe60806040523480156200001157600080fd5b5060405162000d8e38038062000d8e833981810160405260808110156200003757600080fd5b810190808051906020019092919080519060200190929190805160405193929190846401000000008211156200006c57600080fd5b838201915060208201858111156200008357600080fd5b8251866001820283011164010000000082111715620000a157600080fd5b8083526020830192505050908051906020019080838360005b83811015620000d7578082015181840152602081019050620000ba565b50505050905090810190601f168015620001055780820380516001836020036101000a031916815260200191505b50604052602001805160405193929190846401000000008211156200012957600080fd5b838201915060208201858111156200014057600080fd5b82518660018202830111640100000000821117156200015e57600080fd5b8083526020830192505050908051906020019080838360005b838110156200019457808201518184015260208101905062000177565b50505050905090810190601f168015620001c25780820380516001836020036101000a031916815260200191505b50604052505050336000806101000a81548173ffffffffffffffffffffffffffffffffffffffff021916908373ffffffffffffffffffffffffffffffffffffffff1602179055508360028190555081600190805190602001906200022892919062000253565b5080600390805190602001906200024192919062000253565b50476005819055505050505062000302565b828054600181600116156101000203166002900490600052602060002090601f016020900481019282601f106200029657805160ff1916838001178555620002c7565b82800160010185558215620002c7579182015b82811115620002c6578251825591602001919060010190620002a9565b5b509050620002d69190620002da565b5090565b620002ff91905b80821115620002fb576000816000905550600101620002e1565b5090565b90565b610a7c80620003126000396000f3fe6080604052600436106100915760003560e01c8063ac62f56611610059578063ac62f56614610247578063b5aebc8014610302578063ce845d1d146103bd578063f251fc8c146103e8578063fb9b4ab81461041357610091565b80630dcf4b8f1461009657806340193883146100c15780634c9ba852146100ec57806360bc7ce8146101275780637284e416146101b7575b600080fd5b3480156100a257600080fd5b506100ab61046a565b6040518082815260200191505060405180910390f35b3480156100cd57600080fd5b506100d6610470565b6040518082815260200191505060405180910390f35b3480156100f857600080fd5b506101256004803603602081101561010f57600080fd5b8101908080359060200190929190505050610476565b005b34801561013357600080fd5b5061013c6105e6565b6040518080602001828103825283818151815260200191508051906020019080838360005b8381101561017c578082015181840152602081019050610161565b50505050905090810190601f1680156101a95780820380516001836020036101000a031916815260200191505b509250505060405180910390f35b3480156101c357600080fd5b506101cc610684565b6040518080602001828103825283818151815260200191508051906020019080838360005b8381101561020c5780820151818401526020810190506101f1565b50505050905090810190601f1680156102395780820380516001836020036101000a031916815260200191505b509250505060405180910390f35b34801561025357600080fd5b506102806004803603602081101561026a57600080fd5b8101908080359060200190929190505050610722565b6040518080602001838152602001828103825284818151815260200191508051906020019080838360005b838110156102c65780820151818401526020810190506102ab565b50505050905090810190601f1680156102f35780820380516001836020036101000a031916815260200191505b50935050505060405180910390f35b6103bb6004803603602081101561031857600080fd5b810190808035906020019064010000000081111561033557600080fd5b82018360208201111561034757600080fd5b8035906020019184600183028401116401000000008311171561036957600080fd5b91908080601f016020809104026020016040519081016040528093929190818152602001838380828437600081840152601f19601f8201169050808301925050505050505091929192905050506107eb565b005b3480156103c957600080fd5b506103d26108fe565b6040518082815260200191505060405180910390f35b3480156103f457600080fd5b506103fd610904565b6040518082815260200191505060405180910390f35b34801561041f57600080fd5b5061042861090a565b604051808273ffffffffffffffffffffffffffffffffffffffff1673ffffffffffffffffffffffffffffffffffffffff16815260200191505060405180910390f35b60045481565b60025481565b3373ffffffffffffffffffffffffffffffffffffffff166000809054906101000a900473ffffffffffffffffffffffffffffffffffffffff1673ffffffffffffffffffffffffffffffffffffffff161461051b576040517f08c379a000000000000000000000000000000000000000000000000000000000815260040180806020018281038252602a815260200180610a1d602a913960400191505060405180910390fd5b80471015610574576040517f08c379a000000000000000000000000000000000000000000000000000000000815260040180806020018281038252602e8152602001806109ef602e913960400191505060405180910390fd5b6000809054906101000a900473ffffffffffffffffffffffffffffffffffffffff1673ffffffffffffffffffffffffffffffffffffffff166108fc829081150290604051600060405180830381858888f193505050501580156105db573d6000803e3d6000fd5b504760058190555050565b60018054600181600116156101000203166002900480601f01602080910402602001604051908101604052809291908181526020018280546001816001161561010002031660029004801561067c5780601f106106515761010080835404028352916020019161067c565b820191906000526020600020905b81548152906001019060200180831161065f57829003601f168201915b505050505081565b60038054600181600116156101000203166002900480601f01602080910402602001604051908101604052809291908181526020018280546001816001161561010002031660029004801561071a5780601f106106ef5761010080835404028352916020019161071a565b820191906000526020600020905b8154815290600101906020018083116106fd57829003601f168201915b505050505081565b6007818154811061072f57fe5b9060005260206000209060020201600091509050806000018054600181600116156101000203166002900480601f0160208091040260200160405190810160405280929190818152602001828054600181600116156101000203166002900480156107db5780601f106107b0576101008083540402835291602001916107db565b820191906000526020600020905b8154815290600101906020018083116107be57829003601f168201915b5050505050908060010154905082565b6064341015610862576040517f08c379a000000000000000000000000000000000000000000000000000000000815260040180806020018281038252601f8152602001807f4d696e696d756d20636f6e747269627574696f6e20697320313030205765690081525060200191505060405180910390fd5b34600454016004819055504760058190555061087c61092f565b6040518060400160405280838152602001348152509050600781908060018154018082558091505060019003906000526020600020906002020160009091909190915060008201518160000190805190602001906108db929190610949565b506020820151816001015550506006600081548092919060010191905055505050565b60055481565b60065481565b6000809054906101000a900473ffffffffffffffffffffffffffffffffffffffff1681565b604051806040016040528060608152602001600081525090565b828054600181600116156101000203166002900490600052602060002090601f016020900481019282601f1061098a57805160ff19168380011785556109b8565b828001600101855582156109b8579182015b828111156109b757825182559160200191906001019061099c565b5b5090506109c591906109c9565b5090565b6109eb91905b808211156109e75760008160009055506001016109cf565b5090565b9056fe52657175657374656420616d6f756e74206973206d6f7265207468616e2063757272656e742062616c616e63652e546869732066756e6374696f6e2063616e2062652063616c6c6564206f6e6c79206279204f776e65722ea2646970667358221220e662551628b9eaba9d1b4201a99929b576cc254fd7e51b09a4205c89a50a06f764736f6c63430006080033a26469706673582212204f5a08910995240b166f08876cb22d85cb568de2ca8de771de9579f9e1f51b5764736f6c63430006080033",
  "immutableReferences": {},
  "source": "// solium-disable linebreak-style\r\npragma solidity >=0.6.0 <0.7.0;\r\n\r\n\r\ncontract FundFactory{\r\n    address[] public activeFunds;\r\n\r\n    function createFund(uint goal,string memory cname,string memory description) public{\r\n        address Fund = address(new Fund(goal,msg.sender,cname,description));\r\n        activeFunds.push(Fund);\r\n    }\r\n\r\n    function getActiveFunds() public view returns(address [] memory){\r\n        return activeFunds;\r\n    }\r\n}\r\n\r\n\r\ncontract Fund {\r\n    \r\n    address payable public createrAddress;\r\n    string public createrName;\r\n    \r\n    uint public goal;\r\n    string public description;\r\n    \r\n    uint public totalContribution;\r\n    uint public currentBalance;\r\n    uint public totalContributors;\r\n   \r\n    contributerDetails [] public donators;\r\n    \r\n    struct contributerDetails {\r\n        string contributorName;\r\n        uint contributedAmount;\r\n    }\r\n    \r\n    // mapping(address => address) public checkaddress;\r\n    // mapping(address => bool) public Checknew;\r\n    modifier restricted(){\r\n        require(createrAddress == msg.sender,\"This function can be called only by Owner.\");\r\n        _;\r\n    }\r\n\r\n    constructor (uint amount,address creater,string memory cname,string memory desc) public{\r\n        createrAddress = payable(msg.sender);\r\n        goal = amount;\r\n        createrName =  cname;\r\n        description = desc;\r\n        currentBalance= address(this).balance;\r\n    }\r\n    \r\n    function donate(string memory name) public payable{\r\n        require(msg.value >= 100,\"Minimum contribution is 100 Wei\");\r\n        totalContribution = totalContribution + msg.value;\r\n        currentBalance= address(this).balance;\r\n        contributerDetails memory newContibutor= contributerDetails({\r\n            contributorName : name,\r\n            contributedAmount : msg.value\r\n        });\r\n        donators.push(newContibutor);\r\n        //Checknew[msg.sender]=true;\r\n        totalContributors++;\r\n    }\r\n    \r\n    function checkout(uint value) public restricted{\r\n        require(address(this).balance>=value,\"Requested amount is more than current balance.\");\r\n        createrAddress.transfer(value);\r\n        currentBalance = address(this).balance;\r\n    }\r\n}",
  "sourcePath": "C:\\Users\\DELL\\fundme\\contracts\\Fundme.sol",
  "compiler": {
    "name": "solc",
    "version": "0.6.8+commit.0bbfe453.Emscripten.clang"
  },
  "schemaVersion": "3.2.0",
  "updatedAt": "2020-06-04T12:30:51.803Z",
  "devdoc": {
    "methods": {}
  },
  "userdoc": {
    "methods": {}
  }
}